:020000020000FC
:1000000000C01FEF1DBF18E01EBF1FE014B911276D
:1000100015B9112717B91BE118B91FE01AB9112733
:100020001BB911271093000110930101442734D00C
:1000300043D034990EC042D010910001509101017B
:10004000150F1F701BB9349BFECF38D011271BB979
:10005000F0CF33990AC032D027D011E04127339B2B
:10006000FECF2CD019D028D0E4CF309909C026D0AB
:1000700003950F7021D018D0309BFECF1FD0D9CF61
:100080003199D7CF1BD0002309F00A9515D00CD099
:10009000319BFECF13D0CDCF442319F40091000142
:1000A0000895009101010895442319F4009300017B
:1000B000089500930101089505B9089524E634E6F2
:0A00C0003A95F1F72A95D9F7089553
:00000001FF
