:020000020000FC
:020000001AC024
:0200100063C0CB
:1000340057C0F8940FEF0DBF08E00EBF3F065B4FAB
:10004400666D7D077F67777C395E79711FE014B92F
:10005400112715B938983998409A419A12E01093AB
:10006400680013E010936C001FE71AB911271BB93D
:1000740015E015BD11E010936E004427002705B963
:100084007894152F1BB91FD0162F1BB91CD0F9CF8C
:10009400102F662755271A3010F061E01A50512F9F
:1000A400089511D016B110FF06D008950CD016B1E2
:1000B40011FF05D0089503950F7005B908950A95A9
:1000C4000F7005B9089524E634E63A95F1F72A95B8
:1000D400D9F7089516B110FFE4DF11FFE7DF189593
:1000E40043954D3331F444270395003108F000273C
:0400F400CFDF1895AD
:00000001FF
