:020000020000FC
:0200000029C015
:02001000B2C07C
:020040008DC071
:100044003F065B4F666D7D077F67777C395E79710C
:10005400F894E4E4F0E0A0E0B2E00FE30D9306E0EE
:100064000D930BE50D930FE40D9306E60D930DE64A
:100074000D930DE70D9307E00D930FE70D9307E63E
:100084000D9307E70D930CE70D9309E30D930EE52C
:100094000D9309E70D9301E70D93A0E0B2E00FEF94
:1000A4000DBF08E00EBF00E80093610004E0009378
:1000B400610000E00093C1000FE70AB900270BB903
:1000C4000FE004B900E005B90CE007B907E008B98E
:1000D40060E030E040E020E071E081E054915BB901
:1000E4009C919BB903E005BD01E000936E0004E61A
:1000F40006BD02E00093680003E000936C0078946E
:10010400343609F0FDCF332743954A3011F0319648
:10011400F7CF4427E4E4F0E02395263011F011965C
:10012400EFCF2227A0E0B2E0EBCF70FB36F50E94C0
:100134009D0070E022C06395603109F4662765B9BB
:10014400089580FBEEF40E94A90080E019C06A952E
:1001540067FF6FE065B90895339504E606BD329AEA
:10016400339A429B03C054915BB918959C919BB9F7
:10017400FCCF7894319BD9CF81E0309BE2CF81E0F2
:020184001895CC
:00000001FF
